:02000002D0002C
:1040000000400D00F8950D00000006000C000501B1
:084010000401DB0700000000C1
:044018005C8E0D00AD
:1040200009480A49884208B505D0094A824202D0A7
:10403000121A04F0B3FE0748074A0021121A04F0CE
:10404000BBFE014808BD00BF30E403205C950D00B5
:10405000A4E40320A4E40320F0E7032070B5074E96
:10406000074C02F0E1F9A41BA4080025A54200D1E9
:1040700070BD56F8043B98470135F7E728950D00C9
:104080004C950D0000F024B808B500F02BFABDE8FF
:10409000084002F08BB901F05DBB01F05BBB01F0A1
:1040A00061BB0078B0FA80F04009704701230370CB
:1040B00070470EB403B503AB012153F8042B0193F1
:1040C00002F071FA02B05DF804EB03B07047000033
:1040D00008B501F0FFFD4FF4165101F0EFFD32205D
:1040E00002F0E8F90420002102F0CCFC254800F0A1
:1040F00030FB00283DD001F0EDFD234902F02BFA02
:1041000002F05AFC01F09AFC204800F09BFB1F488B
:1041100000F0FAFB1D4800F05CFC1C4800F0A4FB1A
:1041200000221A48022100F0AAFB1949174800F0A2
:104130000CFC00221548032100F0A1FB154913488F
:1041400000F003FC11480022042100F098FB0F4806
:10415000114900F0FAFB114801F0C5F868B101F00F
:10416000B9FD0F4902F0F7F901F000FA0D4B1860A4
:1041700008BD01F0AFFD0C49C0E701F0ABFD0B49F4
:10418000F0E700BFACE40320708E0D0040E6032092
:10419000A48E0D00AB8E0D00B28E0D00C8E403207E
:1041A000BF8E0D0030E503208A8E0D00D48E0D00E9
:1041B000014800F0FDBA00BFACE4032038B5044666
:1041C000114800F0F5FA11490546204602F083FA3D
:1041D0000F4B1B68AB4205D10E49204602F0A9FAED
:1041E000204638BD0C4B1B68AB4201D10B49F4E7AC
:1041F0000B4B1B68AB4201D10A49EEE70A4B1B6827
:10420000AB42EDD10949E8E7ACE40320E98E0D00AB
:1042100028900D00EE8E0D0030900D00F58E0D00F3
:104220002C900D00048F0D0034900D00128F0D00A6
:1042300070B506460E480D46144600F0DFFCBDEE94
:10424000C00A0B4886ED000A00F006FD9FED097AD2
:104250000748C0EE077AFDEEE77AC5ED007A00F078
:104260003DFEBDEEC00A012084ED000A70BD00BF16
:10427000C8E403200000C8422DE9F0472DED028B71
:10428000494C4A4B2268002A77D11B68236020687A
:10429000474DDFF830A103F037FF39A3D3E90023FE
:1042A00004F0D6F804F05AFA286003F04FFF9FEDAF
:1042B000361B41EC100B02F047FC95ED008A18EE1E
:1042C000100A57EC106B03F041FF31A3D3E9002330
:1042D000804689463046394603F090FF42460646FE
:1042E0000F464B464046494603F088FF2AA3D3E9D0
:1042F000002303F083FF02460B463046394603F0A5
:10430000C5FDDFED2C7A68EE277A064617EE900A97
:104310000F4603F01BFF02460B463046394603F0BA
:10432000B7FD1FA3D3E9002303F0B2FD04F016FA92
:10433000CAF8000001F0CEFC22681F49FFF7B9FE61
:1043400001F0C8FC0446286803F000FF02460B4653
:1043500020461A49FFF7ADFE01F0BCFC0446DAF82E
:10436000000003F0F3FE02460B4620461449FFF717
:10437000A0FEBDEC028BBDE8F0871A6087E700BFA6
:1043800000000000882A6141000000000000084091
:104390009A9999999999F13F6666666666660E40A4
:1043A000D7A3703D0AD7E33F38E5032034E5032067
:1043B0003CE60320000002441C8F0D00248F0D00FA
:1043C000308F0D000CE503202DE9F0411F46064615
:1043D0003948DDF8188014460D4600F095FA03229E
:1043E0003548002100F04BFA3968334800F0ADFA47
:1043F00000223148012100F042FA30492E4800F0F5
:10440000A4FA41462C4800F0ADFA00222A480221C5
:1044100000F035FA2A49284800F097FA3146264834
:1044200000F0A0FA2749244800F08FFA0022224821
:10443000032100F024FA24491F4800F086FA294697
:104440001D4800F08FFA21491B4800F07EFA002237
:104450001948042100F013FA1D49174800F075FAB5
:10446000214615481B4C00F07DFA1B49124800F00C
:104470006CFA94ED007AF7EE007AB4EEE77AF1EE9A
:1044800010FA17DD00220C48052100F0F8F9134955
:10449000094800F05AFAD4ED007A0748FDEEE77AB1
:1044A00017EE901A00F05EFABDE8F0410C490248A0
:1044B00000F04BBABDE8F08140E60320488F0D00C4
:1044C000558F0D005C8F0D005E8F0D002E8F0D003F
:1044D000698F0D000CE50320718F0D00768F0D00A4
:1044E000418F0D002DE9F0472DED028B00219EB08C
:1044F000042002F01BFB6F4D6F4B704E18602B6851
:104500001844286001F032F83368C01A6C4B9842A6
:1045100040F2CB8016A8FFF751FEFFF749FE044694
:1045200001F0D8FB169A6749DFF8D8A1FFF7C1FD63
:1045300015AA14A913A8FFF77BFE01F0CBFB139A71
:104540006149FFF7B6FD01F0C5FB149A5F49FFF71B
:10455000B0FD01F0BFFB159A5D49FFF7AAFDFFF71B
:104560008BFEDDE91428139F119216A91AA802F0F8
:10457000D5F8119A00941AAB41463846FFF724FF4C
:104580001AA802F05DF8DDED137A524C524F5348F1
:10459000DFF87481F8EEE77AC146C4ED007ADDED0C
:1045A000147AF8EEE77AC7ED007ADDED157AF8EEC9
:1045B000E77ACAED007A00F0FBF807EE900AF8EE11
:1045C000E77A4648C8ED007A00F0D8F807EE900A7E
:1045D000434BDFF83881434AB8EEE78A83ED008A1F
:1045E0002B6843B107EE903A3F4BF8EE677A1B68B1
:1045F000C8ED007A136000232B603C4B1B680E93C0
:10460000106803F0A3FDCDE90C01D8F8000003F019
:104610009DFDCDE90A0118EE100A03F097FDCDE9E2
:104620000801D9F8000003F091FDCDE90601DAF8A0
:10463000000003F08BFDCDE90401386803F086FD2E
:10464000CDE90201206803F081FD294ACDE900018E
:104650004FF48071274801F095F8274B274A1B78C3
:104660001278274913438DF80030224A09683C2309
:104670001AA801F003FD1B9C7CB16368013B6360D9
:104680005BB9236820469B689847A368013BA360F9
:104690001BB923682046DB68984700232B6000F095
:1046A00065FF306016A801F0CBFF1EB0BDEC028B99
:1046B000BDE8F08738E5032010E5032030E503204E
:1046C000A0BB0D007D8F0D008D8F0D00968F0D000E
:1046D000A38F0D0014E5032018E50320ACE40320AC
:1046E00024E503202CE503203CE6032030E40320EE
:1046F000B08F0D003CE50320A8E40320A9E40320CB
:1047000034E403201CE5032020E5032028E50320F2
:1047100008B5094B01201870084B02221A700021BD
:1047200000F0ECFF0648112100F00EF8BDE808404B
:10473000044800F091B900BFA9E40320A8E40320D5
:10474000ACE40320C8E403200022C0E90422016095
:10475000704710B50446008802F0D1F940F21233D8
:10476000A0F10B029A4207D8C4E90100E06000F012
:10477000FDFEA061012010BD0020FCE780687047AD
:1047800010B5044600F0F2FEA369C01A074B984228
:104790000AD9D4E9043293FBF2F3E36000F0E6FEB9
:1047A0000023C4E90433A06110BD00BF20A10700AD
:1047B00010B5836843600446008802F0A0F92369BD
:1047C000A060184463692061013363612046FFF7EC
:1047D000D7FFD4E90112511AB1F5C87F10DCB2F548
:1047E0002F7F0DDCE368D31A962B0BDCC82902DD82
:1047F000B2F52F7F08D1322BCCBF0220032010BD91
:104800000020FCE70120FAE70220F8E70368C9B2BC
:104810009B68184710B5044602F0CEF83C2101F021
:1048200043F902F0C9F88021FFF7F0FF02F0C4F865
:10483000036821469B68984702F0BEF8BDE8104027
:1048400001F039B908B5AE20FFF7E4FF052001F00B
:1048500031FEAF20FFF7DEFF052001F02BFEBDE8A3
:104860000840A620FFF7D6BF08B50123037020201B
:10487000FFF7D0FFBDE808400220FFF7CBBF10B51F
:1048800050391446C8B2FFF7C5FFE00000F0080039
:10489000FFF7C0FFC4F343001030BDE81040FFF73E
:1048A000B9BF10B50C4602F087F83C2101F0FCF8C6
:1048B00002F082F84021FFF7A9FF02F07DF80368BB
:1048C00021469B68984702F077F8BDE8104001F058
:1048D000F2B80000A1F120035F2B88BF202170B542
:1048E00001F10051074D2039064605EBC1050824AA
:1048F00015F8011B3046013CFFF7D3FF14F0FF040D
:10490000F6D170BD38900D0070B50546AE20FFF7AA
:1049100081FF00260022F1B22846FFF7B0FF1024E5
:1049200020212846013CFFF7D5FF14F0FF04F7D102
:104930000136082EEED1AF20FFF76CFF224621464C
:104940002846BDE87040FFF79ABF70B506460D4691
:104950000024E3B20134E95C19B13046FFF7BAFF35
:10496000F7E770BDF0B585B000230C1ECDE901332B
:104970000646ADF80C3024DA2D21FFF7ABFF644278
:10498000012300250A202A4604A90A440135B4FB64
:10499000F0F100FB114402F80C4CEDB20C4600297A
:1049A000F1D12B44DCB204AB5F190D3F75B117F8A0
:1049B00001193031C9B23046013DFFF78BFFEDB22E
:1049C000F4E7DED13021FFF785FF0124204605B052
:1049D000F0BDA620FFF71EBF704710B5102104469A
:1049E00002F0ABF8204610BD0EB403B503AB0021B6
:1049F00053F8042B019301F0D6FD02B05DF804EBEF
:104A000003B0704773B5044608462279A36832B1F3
:104A1000A3B90B4902B0BDE8704001F089BD094A55
:104A2000267B094D0949647B012E18BF2946CDE933
:104A300000140749FFF7D8FF02B070BD054AEFE741
:104A400049930D005B8F0D0045930D0041930D00C0
:104A50005F930D0038930D004FF0FF3303617047F3
:104A600013B50B4C2178BFF35B8F11F001010BD113
:104A700020460191FFF715FB019928B1054801F087
:104A80009DFE2046FFF712FB024802B010BD00BF9A
:104A900044E6032048E603202DE9F04190F9133065
:104AA000013305460F4606D1FFF7DAFF3946BDE868
:104AB000F04101F025BF002407264FF0010895F9C9
:104AC0001300002180B201F0EEFF95F9110008FA01
:104AD00006F1394080B201F0E6FF95F9130001219B
:104AE00080B201F0E0FF95F91200640080B2E4B2F8
:104AF00001F0F2FF08B144F00104013EDFD220468C
:104B0000BDE8F08108B5FFF7ABFFBDE8084001F054
:104B100070BE07B50190FFF7A3FF019903B05DF8E0
:104B200004EB01F07FBE000030B590F91030013386
:104B300085B004460D4623D10179006800F0B0FF2E
:104B40002068036829469B689847206800F0B3FFF7
:104B500021792068032200F0A0FF206803685B69C8
:104B600098470502206803685B6998472843050257
:104B7000206803685B6998470543284605B030BD47
:104B800090F9133001330CD11A4B009300238DF8A8
:104B90000430194B029368460123ADF80C30FFF73F
:104BA000B8FF94F91000002180B201F07CFF45F0BD
:104BB00080012046FFF770FF00212046FFF76CFFC1
:104BC000002105022046FFF767FF28430502002168
:104BD0002046FFF761FF054394F91000012180B2E0
:104BE00001F061FF94F913300133C6D1FFF78AFF5A
:104BF000C3E700BF84930D0020A1070010B5FA2180
:104C00000446FFF791FFB0F5000F1ED0A18A9FED7B
:104C1000107A4B00C1EB2022C3EBE011B4F916303F
:104C200052435943B4F91830121353439B1303EB07
:104C3000E123E36003EB830380331B1207EE903A1A
:104C4000F8EEE77A87EE870A10BD9FED020AFBE7D0
:104C50000000C8420000C07F2DE9F8430446FFF77A
:104C6000CDFFF7212046FFF75FFFB0F5000F0546A7
:104C700000F0BF80E068B4F91C60B0F5FA334FEA89
:104C8000E07141F1FF32A3FB038903FB02F109EB61
:104C90004109F71706FB02F103FB0711A6FB0367A7
:104CA0000F44390341EA16513003B4F91E60F71777
:104CB00006FB09FC08FB07CCA6FB086767444FEA24
:104CC000162C4CEA076C668B4FEA272E1CEB000073
:104CD0004EEB010E00304EF5004EA0FB060106FB28
:104CE0000E114E10CF1756EA070100F08580B4F977
:104CF000240000FB09FCC11708FB01CCA0FB080144
:104D0000B4F922804FEAE87908FB02F203FB09229A
:104D1000A8FB0389914461444FEA48424FEA494C59
:104D20002D111218C5F580154CEAD83CB4F9208035
:104D30004CEB010C0023E9179B184FEAC17E4FEAA8
:104D4000C5704FEAC80141EB0C0C4EEA550EC01A73
:104D500040F635436EEB0C0EA0FB030103FB0E1176
:104D600032463B4603F058FEB4F92A204D13460B59
:104D700046EAC14602FB05F7D31706FB0377A2FB01
:104D800006233B44554306FB0355A2FB06232B4455
:104D9000550E45EAC315B4F92820B4F926402D185C
:104DA0004FEA636641EB0606D317514300FB03113C
:104DB000A2FB00230B44D10C41EA43316D184FEAAA
:104DC000E34046EB00032A0AE51742EA03621912A0
:104DD00020012B0143EA1473801843EB010103F017
:104DE000DDFD9FED070A07EE900A27EE800ABDE879
:104DF000F8839FED040AFAE79FED030AF7E700BF87
:104E00000000803B0000C07F0000000030B590F93A
:104E10001030013385B004460D461FD1017900687A
:104E200000F03EFE2068036829469B68984720688A
:104E300000F041FE21792068022200F02EFE206859
:104E400003685B6998470546206803685B69984773
:104E500040EA052085B2284605B030BD90F91330F0
:104E600001330CD1184B009300238DF80430174BFD
:104E7000029368460123ADF80C30FFF74AFE94F91F
:104E80001000002180B201F00EFE45F080012046A6
:104E9000FFF702FE00212046FFF7FEFD0021054638
:104EA0002046FFF7F9FD40EA052085B294F910008D
:104EB000012180B201F0F7FD94F913300133CAD11A
:104EC000FFF720FEC7E700BF84930D0020A1070075
:104ED00008B5FFF79BFF40BA80B208BD38B504465D
:104EE000FFF78CFEFD212046FFF790FFB0F5004F45
:104EF00038D0B4F93250E268B4F934302D05A2F557
:104F00009632C5EB803002FB130303F58043D913BF
:104F100094F830305343DB1203F5004094F93630F7
:104F200053439B1243439B1203F50012B4F92E30F6
:104F3000534303F500539B134B43DA1394F82C109F
:104F40005243D2114A43A3EB221323EAE373B3F192
:104F5000C85FA8BF4FF0C8531B1300EE103ABAEE5B
:104F6000CB0A38BD9FED010AFBE700BF0000C07F00
:104F700030B590F91030013385B004460D4618D194
:104F80000179006800F08CFD2068036829469B6861
:104F90009847206800F08FFD21792068012200F0F9
:104FA0007CFD206803685B699847C5B2284605B058
:104FB00030BD90F9133001330CD1154B0093002311
:104FC0008DF80430134B029368460123ADF80C3082
:104FD000FFF79FFD94F91000002180B201F063FDFE
:104FE00045F080012046FFF757FD00212046FFF7DE
:104FF00053FD054694F91000012180B201F053FDE4
:1050000094F913300133D1D1FFF77CFDCEE700BF17
:1050100084930D0020A1070008B5F321FFF7A8FF36
:1050200000F0010008BD38B588210446FFF750FFA5
:105030008A21A0822046FFF74BFF8C21E082204688
:10504000FFF746FF8E2120832046FFF741FF902186
:1050500060832046FFF73CFF9221A0832046FFF7A4
:1050600037FF9421E0832046FFF732FF962120840A
:105070002046FFF72DFF982160842046FFF728FF88
:105080009A21A0842046FFF723FF9C21E08420463C
:10509000FFF71EFF9E2120852046FFF719FFA12163
:1050A00060852046FFF764FFE12184F82C0020464C
:1050B000FFF70EFFE321E0852046FFF759FFE421CB
:1050C00084F830002046FFF753FFE52105462046CF
:1050D000FFF74EFF00F00F0343EA05106086E6215C
:1050E0002046FFF745FFE52105462046FFF740FF34
:1050F000031143EA0510A086E7212046FFF738FF99
:1051000084F8360038BD00007FB590F910300133C7
:1051100004460E46154612D10179006800F0C0FC25
:105120002068036831469B689847206803682946D1
:105130009B689847206800F0BEFC04B070BD90F9F1
:10514000133001330CD1144B009300238DF804303D
:10515000124B029368460123ADF80C30FFF7D9FCDF
:1051600094F91000002180B201F09DFC06F07F014F
:105170002046FFF791FC29462046FFF78DFC94F965
:105180001000012180B201F08EFC94F9133001333C
:10519000D3D1FFF7B7FCD0E784930D0020A107001F
:1051A000F8B5DB0002F0070203F03803134343EACB
:1051B00081139DF8186080F83C3090F840309DF8DD
:1051C0001C509DF8207066F3471380F84030ED00C6
:1051D00090F8383007F0070705F0380523F03F0353
:1051E0003D4304461D4380F8385006F00702F22183
:1051F000FFF78AFF94F83820C2F3C20302F00701D8
:105200009B0043EA411343EAD2122046F521FFF7FF
:105210007BFF94F83C20C2F3C20302F007019B001D
:1052200043EA411343EA92122046F421BDE8F840D4
:10523000FFF76ABF30B5044690F91000421C85B0F4
:1052400019D1206800F0FAFBD0212046FFF790FE2C
:105250006028A06045D12046B622E021FFF754FF28
:105260004FF4967001F026F92046FFF7D5FE05466B
:1052700028B36420F6E7012180B201F014FC94F910
:105280001000012180B201F0FDFB94F91300431CD2
:1052900004D1FFF7E5FB01F09BFAD5E7012180B2CD
:1052A00001F0F0FB94F91100012180B201F0EAFB5A
:1052B00094F91200002180B201F0E4FBC4E720461B
:1052C000FFF7B1FE052300931A4603212046CDE9DE
:1052D0000155FFF765FF642001F0ECF8012005B0EF
:1052E00030BD0020FBE7772310B50371044601F0C1
:1052F00063FB20602046FFF79DFF30B976232371C2
:105300002046BDE81040FFF795BF10BD08B5024B21
:105310001B681B68019308BD4C02030008B5024BD3
:105320001B685B68019308BD4C02030008B5024B83
:105330001B681B69019308BD4C02030008B5024BB2
:105340001B685B69019308BD4C02030008B5024B62
:105350001B689B69019308BD4C02030008B5024B12
:105360001B68DB69019308BD4C02030008B5024BC2
:105370001B681B6A019308BD4C02030008B5024B71
:105380001B68DB68019308BD2802030008B5024BC7
:105390001B689B69019308BD2802030008B5024BF6
:1053A0001B68DB69019308BD2802030008B5024BA6
:1053B0001B681B6A019308BD2802030008B5024B55
:1053C0001B685B6A019308BD2802030008B5024B05
:1053D0001B689B6A019308BD2802030008B5024BB5
:1053E0001B68DB6A019308BD2802030008B5024B65
:1053F0001B681B6B019308BD2802030008B5024B14
:105400001B685B6B019308BD2802030008B5024BC3
:105410001B681B6C019308BD2802030008B5024BF2
:105420001B681B6D019308BD2802030008B5024BE1
:105430001B681B68019308BD3002030008B5024BCE
:105440001B685B69019308BD3002030008B5024B7D
:105450001B68DB69019308BD3002030008B5024BED
:105460001B681B6A019308BD3002030008B5024B9C
:105470001B685B6A019308BD3002030008B5024B4C
:105480001B68DB6B019308BD3002030008B5024BBB
:105490001B681B6C019308BD3002030008B5024B6A
:1054A0001B685B6C019308BD3002030008B5024B1A
:1054B0001B681B68019308BD3C02030008B5024B42
:1054C0001B68DB68019308BD3C02030008B5024B72
:1054D0001B681B69019308BD3C02030008B5024B21
:1054E0001B685B69019308BD3C02030008B5024BD1
:1054F0001B689B69019308BD3C02030008B5024B81
:105500001B68DB69019308BD3C02030008B5024B30
:105510001B681B6A019308BD3C02030008B5024BDF
:105520001B689B6A019308BD3C02030008B5024B4F
:105530001B685B69019308BD6402030008B5024B58
:105540001B685B6C019308BD4802030008B5024B61
:105550001B689B6C019308BD4802030008B5024B11
:105560001B685B68019308BD1802030008B5024B75
:105570001B685B69019308BD1802030008B5024B64
:105580001B685B68019308BD2C02030008B5024B41
:105590001B689B68019308BD2C02030008B5024BF1
:1055A0001B68DB68019308BD2C02030008B5024BA1
:1055B0001B681B69019308BD2C02030008B5024B50
:1055C0001B685B69019308BD2C02030008B5024B00
:1055D0001B681B6B019308BD2C02030008B5024B2E
:1055E0001B68DB6C019308BD2C02030008B5024B5D
:1055F0001B689B68019308BD6802030008B5024B55
:105600001B68DB68019308BD6802030008B5024B04
:105610001B685B69019308BD4402030008B5024B97
:105620001B681B6A019308BD4402030008B5024BC6
:105630001B68DB6B019308BD4402030008B5024BF5
:105640001B685B68019308BD4002030008B5024B6C
:105650001B689B68019308BD4002030008B5024B1C
:105660001B68DB68019308BD4002030008B5024BCC
:105670001B681B69019308BD4002030008B5024B7B
:105680001B685B69019308BD4002030008B5024B2B
:105690001B689B69019308BD4002030008B5024BDB
:1056A0001B68DB69019308BD4002030008B5024B8B
:1056B0001B681B6A019308BD4002030008B5024B3A
:1056C0001B681B6B019308BD4002030008B5024B29
:1056D0001B685B6B019308BD4002030008B5024BD9
:1056E0001B685B68019308BD2002030008B5024BEC
:1056F0001B685B69019308BD2002030008B5024BDB
:105700001B68DB6A019308BD2002030008B5024B49
:105710001B68DB6C019308BD2002030008B5024B37
:105720001B685B6D019308BD2002030008B5034BA5
:105730001B68D3F88830019308BD000020020300E5
:1057400008B5034B1B68D3F89430019308BD0000E3
:105750002002030008B5024B1B681B68019308BDBB
:105760001C02030008B5024B1B685B68019308BD6F
:105770001C02030008B5024B1B689B68019308BD1F
:105780001C02030008B5024B1B68DB69019308BDCE
:105790001C02030008B5024B1B685B6A019308BD3D
:1057A0001C02030008B5024B1B68DB6A019308BDAD
:1057B0001C02030008B5024B1B681B6B019308BD5C
:1057C0001C02030008B5024B1B68DB6B019308BD8C
:1057D0001C02030008B5024B1B685B6C019308BDFB
:1057E0001C02030010B58368044613B1032201466E
:1057F0009847204610BD002340681A46FFF71EBF99
:10580000406800220221FFF729BF002240681146AC
:10581000FFF71CBF002240681146FFF727BF002397
:1058200040681A461946FFF729BF002340681A4608
:105830001946FFF72BBF4068002281F00101FFF7F6
:105840002DBF40680022FFF739BF00224068114693
:10585000FFF73CBF002240681146FFF727BF2DE944
:10586000F043002495B016460D46074600F096FA20
:10587000214618220EA8009403F09EFA4023CDE999
:105880000C3421466B460CAA3046FFF7B7FE04469F
:10589000002846D1024601216868FFF7E7FE022191
:1058A000804622466868FFF7E1FE009E8146214659
:1058B000002E36D0002934D17368022B03D00A2B76
:1058C0000BD0F669F4E7B8F1000F04D071693846DF
:1058D000043100F090FA4146F3E7B9F1000F01D12D
:1058E0004946EEE77469102201A803F065FA062321
:1058F0008DF8143001AD04F10803183418685968A4
:105900002A4603C20833A3421546F7D101A906A8C7
:1059100007AD00F051FA0FCD3C1D0FC42B6823706A
:10592000DEE70098FFF762FE384615B0BDE8F08369
:10593000024B034A1A6000225A60704750E6032067
:1059400098930D00002240681146FFF78FBE002299
:1059500040681146FFF7AABE002240681146FFF7D3
:10596000B5BE40680022FFF7A9BE4068002281F062
:105970000101FFF793BE002340681A461946FFF75E
:1059800085BE002340681A461946FFF777BE0022FD
:1059900040681146FFF75ABE406800220221FFF717
:1059A0005DBE002340681A46FFF748BE024B042242
:1059B0005A60024A1A60704758E60320CC930D00E3
:1059C0007047F8B5064615460C468F18BC4206D0FF
:1059D000336814F8011B9B6830469847F6E7284661
:1059E000F8BD007C0022FFF7E1BC007C0021FFF73E
:1059F000E5BC007C0021FFF7E9BC007C0021FFF73B
:105A0000EDBC007C0021FFF7F1BC10B51421044669
:105A100001F093F8204610BD10B54FF47A73044698
:105A200008460021C4E90113034B2360207411468A
:105A3000FFF7ECFC204610BD00940D000023007C15
:105A40001A461946FFF79ABC7FB500221423CDE908
:105A50000122ADF804300B788DF808304B680393C1
:105A6000CB680493007C0B7A059301A9FFF7D6FC61
:105A700007B05DF804FB1FB5003B8DF800104FF038
:105A80006401039118BF0123694601928DF8083023
:105A9000FFF7DAFF05B05DF804FB0123FFF7EBBF6A
:105AA000007C0022FFF772BCC9B2FFF7F9BF007C8F
:105AB0000022FFF773BC0121FFF7F9BF10B583681F
:105AC00004460BB901F03DF8C3689847A3681BB1C1
:105AD000032221462046984720461021BDE8104069
:105AE00001F02BB870474174704708B5007CFFF790
:105AF00015FD20EAE07008BD08B5007CFFF7E6FC64
:105B000020EAE07008BD08B5007CFFF7EFFC40EA32
:105B1000E07008BD08B5007CFFF7E0FC40EAE070EB
:105B200008BD007CFFF7EABC37B5457C04462DB1C3
:105B3000207C03B0BDE83040FFF7C0BC007C019181
:105B4000FFF7ECFC00280199F2DC284603B030BDD9
:105B500010B51421044600F0F0FF204610BD0000EF
:105B600010B54FF0000C0446084611464FF47A7207
:105B7000C4E901C2044A22600122207462741A46F8
:105B8000FFF794FC204610BD28940D0013B50E4C71
:105B90002178BFF35B8F11F0010112D120460191F2
:105BA000FEF77FFA019960B1084A094B0948FFF7EF
:105BB000D7FF2046FEF77AFA074A0849054800F061
:105BC000B7FF044802B010BD60E6032064E603207E
:105BD000E8E603206CE70320A4E40320E55A0D0067
:105BE0000B68036013B15A6801325A60704738B5C8
:105BF000046805467CB16368013B63605BB9236858
:105C000020469B689847A368013BA3601BB92368A3
:105C10002046DB689847284638BD41747047704776
:105C200008B50021007CFFF791FB40EAE07008BD59
:105C300008B50121007CFFF789FB40EAE07008BD50
:105C400008B5007CFFF77AFB20EAE07008BD08B5D4
:105C5000007CFFF76BFB20EAE07008BD13B504463B
:105C6000007C0191FFF76AFB0028019901DC607C50
:105C700020B1207CFFF772FB20EAE07002B010BD7B
:105C8000007CFFF773BB10B51421044600F055FFEC
:105C9000204610BD10B54FF47A7304460846002123
:105CA000C4E90113044B236001232074637411467B
:105CB000FFF72CFB204610BD58940D00007C0022FD
:105CC000FFF72CBB10B514220446002103F074F832
:105CD000204610BD10B5104C88B003A8FFF7F2FFA6
:105CE0002178BFF35B8F11F0010111D120460191A2
:105CF000FEF7D7F9019958B103AA0848FFF7CAFF80
:105D00002046FEF7D3F9064A0649044800F010FF82
:105D1000024808B010BD00BF80E7032084E70320DD
:105D2000A4E403201F5C0D00704710B51821044641
:105D300000F003FF204610BDF0B5037D062B8DB0AB
:105D40000E4600F104074FF0000412D000F10805E0
:105D500015F8011D0A22304600F007FCAF4204444A
:105D600019D0002CF4D02E21304600F0E5FB04447D
:105D7000EEE72F236A4639460A208DF80040FFF7E8
:105D8000D5FB684603F061F833680246DB68694674
:105D900030469847044620460DB0F0BD10B5054B7F
:105DA0000446112240F8043B002103F005F8204688
:105DB00010BD00BF88940D000346074A10B543F894
:105DC000042B01F1100251F8044B43F8044B9142AB
:105DD000F9D10A781A7010BD88940D0010B59DF89D
:105DE000084044EA032343EA024242EA01610423F1
:105DF0004160037510BD13B5CB7800938B784A785A
:105E00000978FFF7EBFF02B010BD70470020704724
:105E100010B51021044600F090FE204610BD08B5D4
:105E2000FFF7F6FF08BD30B500224FF69C74026004
:105E300084808D888C800C68858004600A6030BD09
:105E400010B504460068FFF78DFC204610BD38B53C
:105E5000C468F4B12378022B03D104F10C00FFF7DE
:105E6000EFFF656835B12846FFF7BCFC10212846D6
:105E700000F063FEA56835B12846FFF7B3FC10219A
:105E8000284600F05AFE20461421BDE8384000F0B4
:105E900054BE38BD73B50E46044656F8043B009315
:105EA0000D4601A83146FFF79BFE019A009B6260F8
:105EB000236001A8002301930093FFF798FE30466A
:105EC000FFF795FE2846082100F037FE204602B075
:105ED00070BD13B50B460246D0E900016C4684E85C
:105EE000030093E8030082E8030094E8030083E8DA
:105EF000030002B010BD826810B50AB900F021FE9F
:105F0000BDE81040C368184708B5006800F11001EB
:105F1000FFF7F1FF08BD826810B50AB900F011FE65
:105F2000BDE81040C368184708B5006800F11001CB
:105F3000FFF7F1FF08BD000038B5002304460360F9
:105F400010200D46FEF7A7F828B10123C0E9013360
:105F5000024B0360C5602060204638BD9C940D0054
:105F600038B5002383608B6804460D462BB10222AE
:105F70009847EB68E360AB68A360204638BD00003B
:105F8000F0B589B004686846FFF74DFF4FF0020393
:105F9000D4E84F2F002A03D1C4E8413F0029F7D1AC
:105FA00025D104F10C0569462846FFF73CFFBFF3F5
:105FB0005B8F01236370002004F10803BFF35B8F44
:105FC00053E8006F43E80002002AF9D1BFF35B8F6A
:105FD0006EB1FFF79BFB78B129463046FFF78BFF88
:105FE0003046FFF7FFFB1021304600F0A6FD684663
:105FF000FFF726FF09B0F0BD314602A8FFF7B0FF5A
:10600000E068B4F9105008B102F002FF06901020C9
:10601000ADF81C50FEF73FF80546E8B10027876051
:106020001820FEF738F8044688B10146876002A8B8
:10603000FFF74FFF049BA268A360059B049206A98B
:10604000E268E36004F110000592FFF7ECFE084BF4
:10605000EB60084B2C60AB6006A8FFF7F1FE02A8CE
:10606000FFF7C0FB002229460348FFF757FBB7E7BD
:10607000095F0D00A1610D00BD5A0D002DE9F0472B
:106080008AB005469DF848900C4617469846FFF79B
:10609000BDFA07AE824638BB4FF62E73059005A9B0
:1060A0003046ADF81830FFF7BEFE1420FDF7F3FFC1
:1060B000044648B1022303700123C0E901AA4370DA
:1060C00031460C30FFF7AFFE2846214640F8044B1E
:1060D000FFF732FF3046FFF7B3FE05A8FFF7B0FE2B
:1060E00028460AB0BDE8F0870C234FF0000A1420C0
:1060F000CDE908AA0793FDF7CEFF014628B1C0E914
:1061000001AA80F800A080F801A004A80391FFF77D
:1061100013FF224B08930820FDF7BDFF824628B1EC
:10612000039B40F8043B04A9FFF75AFD00965FFA71
:1061300089F3424639462046CDF824A0FFF76EFA8F
:10614000B8B9039B5B7803F0FF0293B94FF69C73D9
:1061500005A903A80592ADF81830FFF711FF05A8AF
:10616000FFF76EFE05A80999FFF794FE06A8FFF752
:106170003EFD039B059304A906A8FFF731FD059B8F
:10618000069A2B606A60002306A806930593FFF722
:106190002EFD04A8FFF72BFDA2E700BF65620D00EE
:1061A000022AF8B5054607D0032A18D0012A01D1E2
:1061B0000B6803600020F8BD18200E68FDF76BFF28
:1061C000044650B13146FFF7CBFE3069B6F9147082
:1061D00008B102F01DFE2061A7822C60EAE7046886
:1061E000002CE7D004F11000FFF72AFE2046FFF74D
:1061F000F9FA1821204600F0A0FCDBE738B50023AF
:1062000083608B6804460D462BB102229847EB68E9
:10621000E360AB68A360204638BD022A70B504462F
:1062200007D0032A12D0012A01D10B680360002095
:1062300070BD14200E68FDF72EFF054620B13146D3
:10624000FFF7DCFF337C2B742560F0E70468002C3B
:10625000EDD02046FFF7C6FA1421204600F06DFC71
:10626000E5E70000F0B589B004460D4601A81146E7
:10627000FFF710FEA4B124B21DB1284602F0C8FDFC
:10628000054601A803A90395ADF81040FFF778FE75
:1062900003A8FFF7D5FD02A8FFF7A9FC09B0F0BDE0
:1062A000019D0123D5E84F2F002A03D1C5E8413FC6
:1062B0000029F7D1EFD12B73BFF35B8F6B702B1DD0
:1062C000BFF35B8F53E8006F43E80042002AF9D127
:1062D000BFF35B8F002EDED02046FFF717FA07468C
:1062E00060B105F10C013046FFF715FE3046FFF7AF
:1062F00079FA1021304600F020FCCCE7314603A8A3
:10630000FFF77CFF2B7B8DF81C301020FDF7C3FEC0
:106310000546D0B187601420FDF7BDFE044678B174
:106320008760014603A8FFF7D4FD059BA268A36020
:10633000069B0592E268E3609DF81C300692237488
:10634000064BEB60064B2C60AB6003A8FFF74AFAE4
:10635000002229460348FFF7E1F9C7E7295F0D004E
:106360001B620D00BD5A0D00014B1860704700BF45
:1063700040E4032008B50B4B43B1FFF7ABFC0368C7
:106380001B699847002801DDAFF30080064B43B13D
:10639000FFF7FCFB03681B699847002801DDAFF39A
:1063A000008008BD000000000000000008B5FFF7F5
:1063B000E1FFFFF7DBF8014B186008BDECE70320B5
:1063C0000248034A0349121A02F0E8BC00F4032011
:1063D00004F4032058950D0007B5002300931A46D6
:1063E0006FF07701FFF7ACF903B05DF804FB000034
:1063F00007B543880A2B08D0502B0BD1094B1B68DB
:106400004BB103B05DF804EB1847FFF7E5FF03B0AD
:106410005DF804FB002300931A466FF07701FFF745
:106420008FF9F4E79CE7032038B5124C1248134D5E
:106430000021FFF7CFF92368AB42114B0CBF0122BB
:1064400000221A7002D0FFF7BBFF2560FFF786F825
:10645000044602F0B9FC0B4B13B12046AFF30080A9
:1064600000210848FFF7E2F8BDE83840064800215F
:10647000FFF75CB900F4032069630D001E1C279A26
:1064800098E7032000000000F1630D0010B50446FA
:10649000FFF7A8F9204610BD0348044A0449002329
:1064A000836000F045BB00BFA0E70320A4E4032005
:1064B0008D640D000021FFF719B90000024B1A6826
:1064C000024B1A60704700BF38E40320B0E7032096
:1064D000014B024A1A607047B4E70320CC940D00C8
:1064E000F8B506460D468F180024BD420CD033681F
:1064F00015F8011B9B6830469847031E01DB1C44BE
:10650000F3E7002C08BF1C462046F8BD13B504462F
:10651000084659B1019102F098FC23680199DB68A3
:106520000246204602B0BDE81040184702B010BD38
:1065300008B5FFF7EBFF08BD03689B68184738B53F
:106540000D210546FFF7F8FF0A2104462846FFF70C
:10655000F3FF204438BD38B50546FFF7D7FF0446A2
:106560002846FFF7ECFF204438BD30B58BB0002340
:106570008DF82430012A98BF0A2209AC0D46B1FBE0
:10658000F2F101FB125303F0FF03092B94BF3033E8
:106590003733DBB2AA4204F8013DEFD92146FFF7B9
:1065A000B5FF0BB030BD2DE9F04186B000AF054618
:1065B0000E46381D142114463B60FFF7EBF81328F4
:1065C0000ED8391D2846FFF7A1FF04461EB1284604
:1065D000FFF7B5FF044420461837BD46BDE8F081FB
:1065E00000F1080323F00703E846ADEB030D224654
:1065F000411C3B686846FFF7CDF869462846FFF71F
:1066000085FF0446C546E1E710B50446006808B1B9
:10661000FEF79CFF204610BD10B5064C0023204617
:106620002360FEF78BFF2046034A0449BDE8104073
:1066300000F07EBAB8E70320A4E4032009660D0049
:1066400010B504460068FFF78DF8204610BD10B560
:106650000446006808B1FFF785F80023C4E9013358
:10666000236010BD38B504460D4600680131FFF7C0
:1066700081F810B1C4E90005012038BD10B50368E8
:10668000044623B143688B4201D3012010BD20464C
:10669000FFF7E8FF0028F9D0A368002BF5D12268A6
:1066A0001370F2E737B50D46114601920446FFF725
:1066B000E5FF019A28B92046FFF7C9FF204603B03D
:1066C00030BDA2602946206802F068FB2268A368FA
:1066D0000021D154F2E7002313B5C0E9003304468A
:1066E0008360037341B10846019102F0AEFB01994A
:1066F00002462046FFF7D6FF204602B010BD884272
:1067000010B5044605D00B682BB18A681946FFF70F
:10671000C9FF204610BDFFF79AFFFAE710B5002326
:106720000446C0E9003383600373FFF7E8FF2046A7
:1067300010BD13B5044659B10846019102F085FB1E
:10674000019902462046FFF7ADFF204602B010BD7A
:10675000FFF77DFFF9E710B50446006818B1FFF7B1
:1067600001F80023236010BD10B50446FFF7F3FFC6
:10677000204610BD10B5094B094C022200201A60BA
:10678000084B2060A080A071A360FEF7A7FF204601
:10679000054A0649BDE8104000F0CAB9C8E7032021
:1067A000BCE703200000FFFFA4E4032069670D009D
:1067B0000021FEF76BBE0021FEF770BE10B5044647
:1067C00008462170FEF742FE00236360204610BD9C
:1067D00010B504460078FFF7EBFF48B920784FF674
:1067E000FF71FEF723FE2078BDE81040FFF7E3BFFE
:1067F00010BD0078FFF7DFBF400830B518600024F7
:1068000018688842E5B206D90134082C02D0400845
:106810001860F5E70725024B5B5D137030BD00BFC4
:10682000D0940D002DE9F04306468FB000780D4658
:10683000FFF7BEFF00281BDB34781422002109A8D3
:1068400002F0BAFA0B23002209A92046ADF8243041
:10685000FEF70CFE9DF82D3013B19DF82C4054B17D
:106860000027B946B84601242B795CB1C3B100209A
:106870000FB0BDE8F083DDF830809DF834909DF8CE
:106880003570F1E7002B35D1AB68434508D18DF861
:1068900020908DF82170BDF82020AB899A42E6D077
:1068A0000023A9688DF80F300A9804AB0DF10F0290
:1068B000FFF7A2FF297984B989B9AB6843450ED3A4
:1068C0008DF820908DF82170BDF82020AB899A4278
:1068D00005D1049B434502D1C9E70029F9D1002322
:1068E00001936B7B00939DF80F202B7B3078FEF794
:1068F000C5FDBCE7CDE90044234622460121F5E76A
:1069000008B50078FEF79AFDC0B208BD00224068C5
:106910001146FEF7CBBE002240681146FEF7D6BEF8
:1069200040680022FEF7CABE4068002281F00101E3
:10693000FEF7B4BE002340681A461946FEF7A6BE0D
:10694000002340681A461946FEF798BE00224068A8
:106950001146FEF78BBE002240681146FEF776BE58
:10696000406800220221FEF779BE002340681A46E3
:10697000FEF764BE024B03225A60024A1A60704757
:10698000CCE70320E0940D0038B500232025438098
:10699000142304460380856005610649284600F0FB
:1069A000CEF804496060284600F0C9F8E06020464F
:1069B00038BD00BF0C950D0030B50F4D2978BFF3E1
:1069C0005B8F11F0010487B013D12846FDF769FBF6
:1069D00078B101A8FFF7D8FF01AA21460748FFF7C1
:1069E0001BF82846FDF762FB054A0649034800F0FC
:1069F0009FF8024807B030BDD4E70320D8E7032052
:106A0000A4E40320C1590D00232813B502D90020A6
:106A100002B010BDA0F10B03022B1AD8174C21783D
:106A2000BFF35B8F11F001010BD120460191FDF7FF
:106A300038FB019928B11248FFF7C0FE2046FDF748
:106A400035FB0F4B1878FEF709FD0028DFD1012038
:106A5000DEE7012809D8FFF7AFFF0021007CFEF731
:106A6000CDFC80F00100C0B2D2E709380128EED891
:106A7000FFF78CF8007CFEF749FDF2E744E60320BF
:106A800048E60320232838B504460D460AD8FF29D6
:106A900008D0FFF7B9FF28B129462046BDE83840A5
:106AA000FEF774BD38BD38B504460D46FEF776FDD9
:106AB000FF2810D0062804D84D2323FA00F0C3077E
:106AC00009D42046FFF7A0FF28B129462046BDE89B
:106AD0003840FEF76BBD38BD10B50446FEF75EFDCD
:106AE000031FDBB2012B08D92046FFF78DFF20B131
:106AF0002046BDE81040FEF761BD002010BD0D2806
:106B000010B504469CBF0E34A4B22046FFF77CFFAC
:106B100050B103212046FEF731FD032804D1204661
:106B2000BDE81040FEF752BD002010BDFEF756BD77
:106B30000B460146184602F023B9FDF7B0BAFDF73F
:106B4000ACBA08B5FEF72EFE2DE9F04F2DED028B05
:106B50008DB057EC106B55EC114B00F0ADF9AE4B0E
:106B6000B0EE408AF0EE608A93F90090B9F1FF3FF1
:106B700037D022462B462046294601F0D9FD8346D0
:106B800078BB32463B463046394601F0D1FD80465F
:106B9000002840F093804FF0000A4FF0000B304681
:106BA000394652465B4601F091FD18B352465B46AA
:106BB0002046294601F08AFD0090002857D0974BC7
:106BC000CDF828800122CDE90467CDE90645CDE95D
:106BD00008AB02920393B9F1000F00F089809FED9A
:106BE0008A8BB0EE480AF0EE680A0DB0BDEC028B5D
:106BF000BDE8F08FB0EE480AF0EE680A01F004F844
:106C00008046002800F082804FF000084FF0000915
:106C100051EC180B42464B4601F058FD0028E0D0DD
:106C200047EC106B00F0F0FF0028DAD045EC104B79
:106C300000F0EAFF0028D4D0774B784A93F900306F
:106C4000039204210022022BCDE90467CDE9064519
:106C5000CDE9088902910A9204D002A800F0E0FF71
:106C600000284AD1FEF7AEFD2223036045E045EC43
:106C7000104B00F0C9FF0028B3D052465B462046B7
:106C8000294601F02DFD0028ABD0634B0099634AE3
:106C900093F900300A910121CDE90467CDE9064559
:106CA000CDE90212002B6FD1CDE908AB02A800F0AC
:106CB000B7FF00286ED00A9B2BB320E000220023F0
:106CC0002046294601F002FD00288AD09FED4E8B18
:106CD000524BCDF828B00122B9F1020FCDE904677B
:106CE000CDE906458DED088B029203933FF479AF11
:106CF00002A800F095FF002851D00A9B1BB1FEF7B7
:106D000061FD0A9B03609DED088B6AE747EC106B01
:106D100000F07AFF00283FF477AF45EC104B00F00D
:106D200073FF00283FF470AF53EC182B18EE100AD5
:106D3000194601F0FDFC384B002840F0968093F98D
:106D400000800A9003230293344B0393CDE9046738
:106D5000CDE90645B8F1000F26D1DFF8D0904FF00D
:106D6000604852465B4630463946CDE9088901F015
:106D7000B7FC48BB02A800F053FF00289BD1FEF7E8
:106D800021FD2223036096E725490020022BCDE94F
:106D900008018BD1FEF716FD212303608BE7FEF778
:106DA00011FD21230360A8E79FED197B52465B4646
:106DB000304639468DED087B01F092FC002837D132
:106DC000B8F1020FDBD0D5E7164B0022204629464A
:106DD00001F014FA02460B4643EC102BCDE90023D8
:106DE00000F02AFFDDE9002351EC100B01F06EFCEE
:106DF000002836D10C4B08494FF06042CDE90823FA
:106E000091F90080DCE700BF000000000000F03FC7
:106E1000000000000000F07F3CE4032010950D000E
:106E20000000F0FF0000E03FFFFFEFC7FFFFEF476C
:106E30001C4B00222046294601F0E0F902460B4691
:106E400043EC102BCDE9002300F0F6FEDDE9002332
:106E500051EC100B01F03AFC18B9134B0022CDE9AC
:106E60000823124B93F90080AAE793F90090104B86
:106E7000CDF828800122CDE90467CDE90645CDE9AA
:106E80000223B9F1000F3FF40FAF52465B46504664
:106E9000594601F0DDFAB9F1020FCDE908013FF4DE
:106EA00079AF03E70000E03F0000F0FF3CE403207F
:106EB00010950D00000000002DE9F04F57EC116B0C
:106EC0002DED0A8B27F0004A5AEA060289B03DD020
:106ED00055EC104B764925F00048884510EE102AF5
:106EE000A9462CDC11EE103ABB463AD08A4526DC86
:106EF0006F498A4521D0B9F1000F3DDB0021039194
:106F0000002B55D16A4B9A4500F0A880694B9A45F1
:106F100000F0B680BBF1804F00F00185664B9B45C9
:106F200046D1B9F1000F43DB45EC104B09B0BDEC85
:106F30000A8BBDE8F04F00F099BD002BDBD008F1C3
:106F4000404808F5801858EA02030DD19FED547BA4
:106F50008DED007B9DED000B09B0BDEC0A8BBDE80B
:106F6000F08F0CB9C245C3DD544809B0BDEC0A8BA3
:106F7000BDE8F04F00F058BE51498A4500F38780C4
:106F8000A1F154718A450FDD4FEA2A51A1F2FF3178
:106F9000142940F3CE84C1F1340123FA01F000FA40
:106FA00001F1994200F0208500210391002BADD022
:106FB00045EC104B069200F01DFE069A8DED000B7D
:106FC0005ABBB8F1000F04D03A4B29F040429A4224
:106FD00023D1BBF1000F07DADDE90023354900209A
:106FE00001F036FACDE90001B9F1000FB2DA039BE6
:106FF00008F1404808F5801858EA030340F0BE84C1
:10700000DDE900231046194600F040FF02460B461A
:1070100001F01EFACDE900019CE7039A4FEAD9730B
:10702000013B0693134335D0264B9A454EDD03F1C1
:1070300004739A45244B40F3ED83984540F36B83EA
:10704000BBF1000F40F36B8317A3D3E90023104675
:10705000194601F0D3F8CDE900017BE708F1404380
:1070600003F5801313433FF471AF174B984540F37A
:107070008883BBF1000FC0F25283CDE9006769E756
:10708000BBF1000FC0F24184CDE9004562E7022167
:10709000039135E722462B46B4E700BFAFF30080EB
:1070A000000000000000F03F9C7500883CE4377E43
:1070B0000000F07F0000F03F0000E03F14950D005D
:1070C000FFFF3F430000E041FFFFEF3FE44B09EAD1
:1070D0000303002B40F01684DDE90001E14B0022A0
:1070E00001F08CF8CDE90001DDF804806FF0340088
:1070F0004FEA2853DC49C8F31302A3F2FF3342F0EE
:107100007F5818188A42079048F4401840F3E983E2
:10711000D64B9A4240F33E849FEDBB7BB0EE47BA1C
:10712000F0EE67BAB0EE47CAF0EE67CA9FEDB87BE3
:10713000013054EC173B0790A8F580184FF0000978
:10714000DDE900AB44EC183B1A4650462346414665
:1071500000F09CFE53EC182B04460D465046414669
:1071600000F096FE02460B460020C14901F070F97E
:1071700045EC1A4B41EC190B51EC1A0B53EC192B43
:1071800001F03CF8C3464FEA680848F0005808F59B
:10719000002303EB09050A4600230146CDE900124E
:1071A0000093DDE900890024CDE904122B46224634
:1071B0004046494601F022F802460B4651EC1A0BB4
:1071C00000F064FE41EC170B53EC182B20462946C7
:1071D00055EC174B00F05AFE02460B4650465946F6
:1071E00000F054FE42464B4601F008F802460B46BA
:1071F0002046294600F04AFE53EC192B00F0FEFF12
:10720000DDE904AB04460D4652465B4650465946FE
:1072100000F0F4FF80A3D3E9002345EC1A4B0446A9
:107220000D4600F0EBFF7EA3D3E9002300F030FE13
:1072300022462B4600F0E2FF7BA3D3E9002300F0B7
:1072400027FE22462B4600F0D9FF79A3D3E900237D
:1072500000F01EFE22462B4600F0D0FF76A3D3E9B5
:10726000002300F015FE22462B4600F0C7FF74A352
:10727000D3E9002300F00CFE22462B4604460D46BF
:107280001046194600F0BAFF02460B462046294632
:1072900000F0B4FF424604460D464B465046594660
:1072A000CDE904AB00F0F4FD53EC1A2B00F0A6FF7F
:1072B00022462B4600F0ECFD424604460D464B4666
:1072C0004046494600F09AFF45EC194B694B0022B5
:1072D00082468B4600F0DCFD53EC192B00F0D8FD04
:1072E000009C0D4622462B464046494600F086FF4C
:1072F000604B8046894600222046294600F0C6FDA4
:1073000052465B4600F0C2FD02460B4651EC190B9B
:1073100000F0BCFDDDE9042300F070FF49EC188BA0
:107320002246804689462B4651EC1A0B00F066FF38
:1073300002460B464046494600F0AAFD82468B466F
:1073400052465B4651EC180B00F0A2FD009C3EA398
:10735000D3E9002320460D4600F050FF53EC182BD4
:10736000804689462046294600F090FD02460B469D
:107370005046594600F08AFD35A3D3E9002300F0BA
:107380003DFF49EC198B34A3D3E90023804689469D
:107390002046294600F032FF02460B464046494649
:1073A00000F076FD53EC1C2B00F072FD824607982E
:1073B0008B4600F0B9FE5246804689465B4651EC4A
:1073C000190B00F065FD53EC1B2B00F061FD4246EC
:1073D0004B4600F05DFD009C42464B4620460D4664
:1073E00000F054FD53EC1B2B00F050FD53EC192B17
:1073F00000F04CFD02460B465046594600F046FD53
:1074000082468B4638E000BF00000000000000000C
:10741000000000000000F03FEF4E454A287ECA3FC2
:1074200065DBC9934A86CD3F01411DA96074D13FF8
:107430004D268F515555D53FFFAB6FDBB66DDB3F0A
:10744000033333333333E33F000000E009C7EE3F3B
:10745000FD033ADC09C7EE3FF5015B14E02F3EBEA9
:107460000000F07F000040438E98030079B60B00C7
:107470000000F03F00000840039B069A013B1343C5
:1074800040F078819FEDC47BB0EE479AF0EE679AAA
:107490000023CDE900670093DDE9008930464246CC
:1074A00039464B4600F0F2FC22462B4600F0A6FE81
:1074B00032463B4606460F465046594600F09EFE71
:1074C00002460B463046394600F0E2FC4246824610
:1074D0008B464B462046294600F090FE06460F4656
:1074E0003B4650465946324600F0D2FCC44B9942C6
:1074F00004460D46884640F3178101F13F4303F5EA
:10750000E003034340F02A82A5A3D3E900235046B9
:10751000594600F0BDFC324641EC180B3B46204674
:10752000294600F0B3FC02460B4651EC180B01F063
:10753000F5F8002840F01282C8F30A534FF4801285
:10754000A3F2FE3342FA03F34344AE49C3F30A52B3
:10755000A2F2FF3241FA02FCC3F3130523EA0C0145
:10756000C2F1140445F48015B8F1000F0B4645FA3A
:1075700004F103914FF00000B8BF49420246B8BF82
:1075800003913046394600F081FC06460F463B46E3
:1075900050465946324600F07BFC039B1B05009386
:1075A0000D46002480A3D3E900232046294600F09D
:1075B00025FE3246804689463B462046294600F055
:1075C00065FC02460B465046594600F05FFC78A326
:1075D000D3E9002300F012FE77A3D3E90023064687
:1075E0000F462046294600F009FE02460B4630466B
:1075F000394600F04DFC06460F4632463B464046B3
:10760000494600F045FC42464B4604460D4600F014
:107610003DFC02460B463046394600F037FC224618
:1076200082468B462B462046294600F0E7FD64A3A0
:10763000D3E9002306460F4600F0E0FD62A3D3E93C
:10764000002300F023FC32463B4600F0D7FD60A348
:10765000D3E9002300F01CFC32463B4600F0CEFD8F
:107660005DA3D3E9002300F011FC32463B4600F055
:10767000C5FD5BA3D3E9002300F00AFC32463B467C
:1076800000F0BCFD02460B462046294600F0FEFBFA
:1076900006460F4632463B462046294600F0AEFDE0
:1076A0000022804689464FF080433046394600F03C
:1076B000EDFB02460B464046494600F0C9FE5246E5
:1076C00006460F465B462046294600F097FD524687
:1076D0005B4600F0DDFB02460B463046394600F0C3
:1076E000D5FB22462B4600F0D1FB02460B4600207C
:1076F000454900F0CBFB0B4600991944B1F5801FBA
:107700000246C0F26981104653EC192B00F076FD59
:10771000CDE900011EE4BBF1000FFFF695AC9FED33
:10772000327B8DED007B15E4DFF8E4C021F00043EF
:10773000634540F30B81354B0B4403430AD132467A
:107740003B4600F0A3FB52465B4600F0DDFF0028FD
:107750003FF4F2AE26A3D3E9002351EC190B00F05D
:107760004DFD23A3D3E9002300F048FDCDE900013E
:10777000FFF7F0BB9FED207BB0EE479AF0EE679AE3
:1077800086E6BBF1000FCADA07F1004300960193C9
:10779000FFF7E0BBAFF30080000000000000F0BF87
:1077A000FE822B654715973C00000000432EE63F04
:1077B000EF39FAFE422EE63F396CA80C615C20BE20
:1077C000D0A4BE726937663EF16BD2C541BDBB3EE7
:1077D0002CDE25AF6A56113F93BDBE166CC1663FC5
:1077E0003E5555555555C53F0000000000000000AE
:1077F00059F3F8C21F6EA501000000000000F03F21
:10780000FFFF8F40FFFF0F000000F03F00346F3F8D
:10781000FFCB90409845FFF67EAF914B98453FF7E0
:107820000FAC8F4B0022DDE9000100F02FFB78A3A5
:10783000D3E9002304460D4600F0E0FC76A3D3E92B
:10784000002382468B462046294600F0D7FC854B14
:107850008046894600222046294600F0CFFC024699
:107860000B466FA1D1E9000100F010FB22462B4628
:1078700000F0C4FC02460B4600207B4900F006FBEA
:1078800022462B4604460D461046194600F0B6FC2B
:1078900002460B462046294600F0B0FC62A3D3E91D
:1078A000002300F0ABFC02460B464046494600F080
:1078B000EDFA804689465046594642464B4600F00E
:1078C000E7FA002452465B4620460D4600F0DEFAF9
:1078D00002460B464046494600F0D8FA82468B469F
:1078E000CAE59FED537BB0EE47BAF0EE67BAB0EE53
:1078F00047CAF0EE67CA9FED507B4FF0000954EC89
:10790000173B1DE40020FFF7F3BB554922462B46E9
:10791000002000F09DFDCDE90001FFF71BBB2246D2
:107920002B462046294600F069FCCDE90001FFF70F
:1079300011BB002B42D1C1F114014AFA01F000FA47
:1079400001F151455AD00393FFF7E0BA464A9342FA
:107950005BDCDDE900120091039122E638A3D3E954
:10796000002351EC190B00F049FC35A3D3E90023A7
:1079700000F044FCCDE90001FFF7ECBA039B012BBA
:107980007FF4E8AADDE9002101F10043CDE90023FD
:10799000FFF7E0BA9FED2C7BB0EE47BAF0EE67BA86
:1079A0009FED2B7BB0EE47CAF0EE67CA9FED2A7BB6
:1079B0004FF4802954EC173BFFF7C2BB45EC104B4A
:1079C000039200F017F9039A8DED000B002A7FF463
:1079D00061AB0392FFF7F5BA039843EC102B00F06C
:1079E000BFF951EC100B8FE600F00100C0F102016D
:1079F0000391002B3FF48AAAFFF7DABA00F00100E6
:107A0000C0F102030393FFF781BA1B1596E500BF8F
:107A1000000000604715F73F44DF5DF80BAE543EB1
:107A2000555555555555D53FFE822B654715F73FA2
:107A30000000000000000000000000000000F03F17
:107A40009C7500883CE4377E0000004003B8E23FAC
:107A500006D0CF43EBFD4C3E000000000000F83F95
:107A60000000F03F0000D03F0000E03F2DE9F04172
:107A70005F4A57EC106BBA4300F09880002F10EE6D
:107A8000104A3B464EDD39155BD0C3F31303CA07DA
:107A900043F48013A1F2FF3E03D45B0003EBD473E5
:107AA0006400E20F4FF0000C02EB43034FEA6E0E4E
:107AB0006400664616254FF40012B118994202DCA4
:107AC0005B1A8E1894445B00013D03EBD4734FEABC
:107AD00052024FEA4404F0D12F4620204FF00042DA
:107AE00009E03ED0E10F01384FEA520201EB4303B7
:107AF0004FEA44043ED0B34202EB0501F1DD002918
:107B000001EB020509DBB0469B1BA14288BF03F1D4
:107B1000FF33641A17444646E4E7002DF3DB06F111
:107B20000108F1E727F00042324336D0002F4DD153
:107B30003946E20A153964051346002AF9D0D702FE
:107B400051D400205B00DE02054600F10100F9D5AA
:107B50001A4623468440C0F12000C3401343491B0A
:107B600093E7A142BED8002901EB0205D5DB984678
:107B70000023CEE7234312D178084FEA6C0101F1CC
:107B80007F511CF0010F01F5001118BF40F00040BB
:107B900001EB0E53024643EC102BBDE8F0817B1C39
:107BA00016BF781C0CF1010C4008E6E710EE102A15
:107BB00010EE100A3B46394600F020FB32463B46A9
:107BC00000F066F941EC100BBDE8F08110EE102AD0
:107BD0003046394600F05AF902460B4600F038FCB0
:107BE00041EC100BD9E7234620204FF0FF35B4E7D6
:107BF0000000F07F51EC100B10EE102A21F0004332
:107C000043EC102B704700BF82B08DED000B019844
:107C100040F0004000F58010C00F02B0704700BF78
:107C200000207047000000009FED010B704700BF6F
:107C3000000000000000F87FF0B553EC102BC3F3F8
:107C40000A56A6F2FF30132810EE105A83B01946D8
:107C50004FEAD37431DC00284CDB3E4E064103EA88
:107C6000060717432ED003EA56031D434FEA560674
:107C70000CD04FF48023132821EA060643FA00F1C2
:107C800041EA06010CBF4FF000450025324800EBE9
:107C9000C4042A46D4E900450B462046294600F094
:107CA000F7F8CDE90001DDE9000122462B4600F09E
:107CB000EDF841EC100B03B0F0BD332806DDB0F554
:107CC000806F40D043EC102B03B0F0BDA6F21346FA
:107CD0004FF0FF30F0400242F4D015EA50024FEA74
:107CE0005003D3D04FF0804225EA030542FA06F64E
:107CF0003543CBE723F000401043E3D0C3F3130038
:107D0000104345420543144800EBC400D0E9006726
:107D1000590C2D0B490405F4002545EA01033046B2
:107D2000394600F0B5F8CDE900013B46DDE9000138
:107D3000324600F0ABF821F0004343EAC47141EC55
:107D4000100B03B0F0BD10EE100A00F0A1F841ECEA
:107D5000100BB9E7FFFF0F0018950D0000000000A1
:107D600038B553EC102BC3F30A511C46054681BBB2
:107D700010EE101A23F00044214329D019460022A6
:107D80003D4B3E4C10EE100A00F038FAA542024678
:107D90000B4616DB0C46C1F30A513639294440F232
:107DA000FE70814221DC002947DC11F1350F34DA05
:107DB0004CF250318D4218DC002B27A1D1E9000193
:107DC00044DB25A3D3E9002300F018FA41EC100BA3
:107DD00038BD40F2FF708142E0D110EE100A194622
:107DE00000F056F841EC100B38BD002B1CA1D1E976
:107DF000000107DB1AA3D3E9002300F0FFF941ECEF
:107E0000100B38BD18A1D1E9000115A3D3E9002357
:107E100000F0F4F941EC100BF3E724F0FF4424F4F4
:107E2000E004363144EA0153104619460022144B4F
:107E300000F0E4F941EC100B38BD24F0FF4424F4C9
:107E4000E00444EA015343EC102B38BD08A1D1E90A
:107E50000001B6E7AFF3008059F3F8C21F6EA50129
:107E60009C7500883CE4377E9C7500883CE437FEB6
:107E700059F3F8C21F6EA58100005043B03CFFFFCC
:107E80000000903C81F0004102E000BF83F000431D
:107E900030B54FEA41044FEA430594EA050F08BFA5
:107EA00090EA020F1FBF54EA000C55EA020C7FEA69
:107EB000645C7FEA655C00F0E2804FEA5454D4EBE6
:107EC0005555B8BF6D420CDD2C4480EA020281EAB0
:107ED000030382EA000083EA010180EA020281EAE8
:107EE0000303362D88BF30BD11F0004F4FEA01313A
:107EF0004FF4801C4CEA113102D0404261EB410149
:107F000013F0004F4FEA03334CEA133302D05242CE
:107F100063EB430394EA050F00F0A780A4F101048A
:107F2000D5F1200E0DDB02FA0EFC22FA05F28018C4
:107F300041F1000103FA0EF2801843FA05F35941AA
:107F40000EE0A5F120050EF1200E012A03FA0EFC29
:107F500028BF4CF0020C43FA05F3C01851EBE37153
:107F600001F0004507D54FF0000EDCF1000C7EEB70
:107F700000006EEB0101B1F5801F1BD3B1F5001FAE
:107F80000CD349085FEA30004FEA3C0C04F10104CD
:107F90004FEA445212F5800F80F09A80BCF1004FF6
:107FA00008BF5FEA500C50F1000041EB045141EA78
:107FB000050130BD5FEA4C0C404141EB0101013C41
:107FC00028BFB1F5801FE9D291F0000F04BF014630
:107FD0000020B1FA81F308BF2033A3F10B03B3F102
:107FE00020020CDA0C3208DD02F1140CC2F10C0292
:107FF00001FA0CF021FA02F10CE002F11402D8BFF0
:10800000C2F1200C01FA02F120FA0CFCDCBF41EABB
:108010000C019040E41AA2BF01EB0451294330BD8A
:108020006FEA04041F3C1CDA0C340EDC04F1140467
:10803000C4F1200220FA04F001FA02F340EA03003E
:1080400021FA04F345EA030130BDC4F10C04C4F184
:10805000200220FA02F001FA04F340EA0300294664
:1080600030BD21FA04F0294630BD94F0000F83F4AE
:10807000801306BF81F480110134013D4EE77FEA91
:10808000645C18BF7FEA655C29D094EA050F08BFDD
:1080900090EA020F05D054EA000C04BF19461046BE
:1080A00030BD91EA030F1EBF0021002030BD5FEA02
:1080B000545C05D14000494128BF41F0004130BD2A
:1080C00014F580043CBF01F5801130BD01F000457E
:1080D00045F0FE4141F470014FF0000030BD7FEAF1
:1080E000645C1ABF194610467FEA655C1CBF0B46EC
:1080F000024650EA013406BF52EA033591EA030F03
:1081000041F4002130BD00BF90F0000F04BF0021FA
:10811000704730B54FF4806404F132044FF000052D
:108120004FF0000150E700BF90F0000F04BF0021A6
:10813000704730B54FF4806404F1320410F000450C
:1081400048BF40424FF000013EE700BF42004FEA07
:10815000E2014FEA31014FEA02701FBF12F07F4384
:1081600093F07F4F81F06051704732F07F4208BF3B
:10817000704793F07F4F04BF41F40021704730B542
:108180004FF4607401F0004521F000411CE700BF8E
:1081900050EA010208BF704730B54FF000050AE011
:1081A00050EA010208BF704730B511F0004502D512
:1081B000404261EB41014FF4806404F132045FEA14
:1081C000915C3FF4D8AE4FF003025FEADC0C18BFBD
:1081D00003325FEADC0C18BF033202EBDC02C2F1AF
:1081E000200300FA03FC20FA02F001FA03FE40EA41
:1081F0000E0021FA02F11444BDE600BF70B54FF045
:10820000FF0C4CF4E06C1CEA11541DBF1CEA135522
:1082100094EA0C0F95EA0C0F00F0DEF82C4481EA8A
:10822000030621EA4C5123EA4C5350EA013518BFAA
:1082300052EA033541F4801143F4801338D0A0FB97
:1082400002CE4FF00005E1FB02E506F00042E0FB44
:1082500003E54FF00006E1FB03569CF0000F18BF4A
:108260004EF0010EA4F1FF04B6F5007F64F54074F2
:1082700004D25FEA4E0E6D4146EB060642EAC62185
:1082800041EA55514FEAC52040EA5E504FEACE2EF2
:10829000B4F1FD0C88BFBCF5E06F1ED8BEF1004FF5
:1082A00008BF5FEA500E50F1000041EB045170BD71
:1082B00006F0004646EA010140EA020081EA0301B5
:1082C000B4EB5C04C2BFD4EB0C0541EA045170BDB1
:1082D00041F480114FF0000E013C00F3AB8014F12B
:1082E000360FDEBF002001F0004170BDC4F1000474
:1082F000203C35DA0C341BDC04F11404C4F12005F5
:1083000000FA05F320FA04F001FA05F240EA02004F
:1083100001F0004221F0004110EBD37021FA04F685
:1083200042EB06015EEA430E08BF20EAD37070BD3F
:10833000C4F10C04C4F1200500FA04F320FA05F09E
:1083400001FA04F240EA020001F0004110EBD370A0
:1083500041F100015EEA430E08BF20EAD37070BD10
:10836000C4F1200500FA05F24EEA020E20FA04F3E9
:1083700001FA05F243EA020321FA04F001F0004198
:1083800021FA04F220EA020000EBD3705EEA430E09
:1083900008BF20EAD37070BD94F0000F0FD101F038
:1083A0000046400041EB010111F4801F08BF013C71
:1083B000F7D041EA060195F0000F18BF704703F0AF
:1083C0000046520043EB030313F4801F08BF013D36
:1083D000F7D043EA0603704794EA0C0F0CEA1355F2
:1083E00018BF95EA0C0F0CD050EA410618BF52EAAC
:1083F0004306D1D181EA030101F000414FF00000B2
:1084000070BD50EA410606BF1046194652EA4306BF
:1084100019D094EA0C0F02D150EA013613D195EA33
:108420000C0F05D152EA03361CBF104619460AD17B
:1084300081EA030101F0004141F0FE4141F4700185
:108440004FF0000070BD41F0FE4141F4780170BD75
:1084500070B54FF0FF0C4CF4E06C1CEA11541DBFDA
:108460001CEA135594EA0C0F95EA0C0F00F0A7F8DC
:10847000A4EB050481EA030E52EA03354FEA013109
:1084800000F088804FEA03334FF0805545EA13131C
:1084900043EA12634FEA022245EA111545EA1065E4
:1084A0004FEA00260EF000419D4208BF964244F17B
:1084B000FD0404F5407402D25B084FEA3202B61A9A
:1084C00065EB03055B084FEA32024FF480104FF46E
:1084D000002CB6EB020E75EB030E22BFB61A7546E2
:1084E00040EA0C005B084FEA3202B6EB020E75EB75
:1084F000030E22BFB61A754640EA5C005B084FEADD
:108500003202B6EB020E75EB030E22BFB61A7546A9
:1085100040EA9C005B084FEA3202B6EB020E75EBB4
:10852000030E22BFB61A754640EADC0055EA060E75
:1085300018D04FEA051545EA16754FEA06164FEAB8
:10854000C30343EA52734FEAC2025FEA1C1CC0D164
:1085500011F4801F0BD141EA00014FF000004FF0F1
:10856000004CB6E711F4801F04BF01430020B4F1B2
:10857000FD0C88BFBCF5E06F3FF6AFAEB5EB030C6A
:1085800004BFB6EB020C5FEA500C50F1000041EB67
:10859000045170BD0EF0004E4EEA113114EB5C0434
:1085A000C2BFD4EB0C0541EA045170BD41F4801107
:1085B0004FF0000E013C90E645EA060E8DE60CEA0F
:1085C000135594EA0C0F08BF95EA0C0F3FF43BAF2C
:1085D00094EA0C0F0AD150EA01347FF434AF95EAE3
:1085E0000C0F7FF425AF104619462CE795EA0C0FC7
:1085F00006D152EA03353FF4FDAE1046194622E794
:1086000050EA410618BF52EA43067FF4C5AE50EA6D
:1086100041047FF40DAF52EA43057FF4EBAE12E75D
:108620004FF0FF3C06E000BF4FF0010C02E000BF3E
:108630004FF0010C4DF804CD4FEA410C7FEA6C5C21
:108640004FEA430C18BF7FEA6C5C1BD001B050EAC4
:10865000410C0CBF52EA430C91EA030F02BF90EAAF
:10866000020F0020704710F1000F91EA030F58BF6E
:10867000994208BF90422CBFD8176FEAE37040F0D0
:10868000010070474FEA410C7FEA6C5C02D150EA6E
:10869000013C07D14FEA430C7FEA6C5CD6D152EA29
:1086A000033CD3D05DF8040B704700BF84461046EE
:1086B00062468C461946634600E000BF01B5FFF7ED
:1086C000B7FF002848BF10F1000F01BD4DF808EDBD
:1086D000FFF7F4FF0CBF012000205DF808FB00BF8E
:1086E0004DF808EDFFF7EAFF34BF012000205DF8E8
:1086F00008FB00BF4DF808EDFFF7E0FF94BF012035
:1087000000205DF808FB00BF4DF808EDFFF7CEFF35
:1087100094BF012000205DF808FB00BF4DF808ED74
:10872000FFF7C4FF34BF012000205DF808FB00BF45
:108730004FEA410C7FEA6C5C02D150EA013C0AD15D
:108740004FEA430C7FEA6C5C02D152EA033C02D14F
:108750004FF0000070474FF0010070474FEA4102B0
:10876000B2F1E04324BFB3F5001CDCF1FE5C0DD98F
:1087700001F0004C4FEAC0024CEA5070B2F1004FD9
:1087800040EB830008BF20F00100704711F0804FDC
:1087900021D113F13872BCBF01F00040704741F4A1
:1087A00080114FEA5252C2F11802C2F1200C10FAA5
:1087B0000CF320FA02F018BF40F001004FEAC12389
:1087C0004FEAD32303FA0CFC40EA0C0023FA02F32D
:1087D0004FEA4303CCE77FEA625307D150EA013303
:1087E0001EBF4FF0FE4040F44000704701F00040D3
:1087F00040F0FE4040F40000704700BF80F00040B1
:1088000002E000BF81F0004142001FBF5FEA410368
:1088100092EA030F7FEA226C7FEA236C6AD04FEA68
:108820001262D2EB1363C1BFD218414048404140AD
:10883000B8BF5B42192B88BF704710F0004F40F45F
:10884000000020F07F4018BF404211F0004F41F47B
:10885000000121F07F4118BF494292EA030F3FD047
:10886000A2F1010241FA03FC10EB0C00C3F120035A
:1088700001FA03F100F0004302D5494260EB4000E9
:10888000B0F5000F13D3B0F1807F06D340084FEA54
:10889000310102F10102FE2A51D2B1F1004F40EB49
:1088A000C25008BF20F0010040EA030070474900B1
:1088B00040EB0000013A28BFB0F5000FEDD2B0FA4E
:1088C00080FCACF1080CB2EB0C0200FA0CF0AABF71
:1088D00000EBC25052421843BCBFD040184370470F
:1088E00092F0000F81F4000106BF80F40000013215
:1088F000013BB5E74FEA41037FEA226C18BF7FEAEC
:10890000236C21D092EA030F04D092F0000F08BF2D
:108910000846704790EA010F1CBF0020704712F014
:108920007F4F04D1400028BF40F00040704712F153
:1089300000723CBF00F50000704700F0004343F0B8
:10894000FE4040F4000070477FEA226216BF0846EE
:108950007FEA23630146420206BF5FEA412390EAB1
:10896000010F40F4800070474FF0000304E000BFA7
:1089700010F0004348BF40425FEA000C08BF704758
:1089800043F0964301464FF000001CE050EA01021C
:1089900008BF70474FF000030AE000BF50EA010231
:1089A00008BF704711F0004302D5404261EB41011E
:1089B0005FEA010C02BF84460146002043F0B64343
:1089C00008BFA3F18053A3F50003BCFA8CF2083A68
:1089D000A3EBC25310DB01FA02FC634400FA02FC71
:1089E000C2F12002BCF1004F20FA02F243EB020078
:1089F00008BF20F00100704702F1200201FA02FCDA
:108A0000C2F1200250EA4C0021FA02F243EB0200CC
:108A100008BF20EADC7070477BB972B90029BEBF7D
:108A200000204FF0004106E008BF00281CBF6FF097
:108A300000414FF0FF3000F0A1B9ADF1080C6DE935
:108A400004CE002909DB002B1ADB00F035F8DDF835
:108A500004E0DDE9022304B07047404261EB4101CC
:108A6000002B1BDB00F028F8DDF804E0DDE9022331
:108A700004B0404261EB4101524263EB4303704753
:108A8000524263EB430300F017F8DDF804E0DDE940
:108A9000022304B0404261EB41017047524263EB54
:108AA000430300F009F8DDF804E0DDE9022304B037
:108AB000524263EB430370472DE9F047089D04469B
:108AC0008C46002B40F083808A42174647D9B2FA81
:108AD00082F242B1C2F1200024FA00F091409740A6
:108AE00040EA010C94404FEA1748230CBCFBF8F60F
:108AF0001FFA87FE08FB16C143EA014306FB0EF18D
:108B0000994209D9FB1806F1FF3080F0198199428A
:108B100040F21681023E3B445B1AA4B2B3FBF8F06C
:108B200008FB103344EA034400FB0EFEA64509D9B6
:108B30003C1900F1FF3380F00581A64540F2028127
:108B400002383C4440EA0640A4EB0E0400261DB166
:108B5000D4400023C5E900433146BDE8F08702B99F
:108B6000FFDEB2FA82F2002A50D1CB1B4FEA174E39
:108B70001FFA87F80126B3FBFEFC210C0EFB1C3309
:108B800041EA034108FB0CF38B4207D979180CF139
:108B9000FF3002D28B4200F2E9808446C91AA3B2A8
:108BA000B1FBFEF00EFB101143EA014408FB00F894
:108BB000A04507D93C1900F1FF3302D2A04500F2CD
:108BC000D9801846A4EB080440EA0C40BFE78B426A
:108BD00009D9002D00F0B1800026C5E9000130461A
:108BE0003146BDE8F087B3FA83F6002E4AD18B42B6
:108BF00002D3824200F2B880841A61EB03010120A3
:108C00008C46002DA8D0C5E9004CA5E7C2F1200391
:108C100020FA03F6974001FA02F04FEA174ED940C6
:108C20003043030CB1FBFEF61FFA87F80EFB16115A
:108C300043EA014306FB08F1994204FA02F409D918
:108C4000FB1806F1FF3C80F08D80994240F28A804B
:108C5000023E3B445B1A81B2B3FBFEF00EFB1033C5
:108C600041EA034100FB08F38B4207D9791800F170
:108C7000FF3C73D28B4271D902383944CB1A40EA97
:108C8000064678E7C6F1200C03FA06F422FA0CF344
:108C90001C4320FA0CF701FA06F34FEA144E21FAAE
:108CA0000CF11F433B0CB1FBFEF91FFA84F80EFBDD
:108CB000191143EA014109FB08FA8A4502FA06F252
:108CC00000FA06F308D9611809F1FF3048D28A4545
:108CD00046D9A9F102092144A1EB0A01BFB2B1FBB7
:108CE000FEF00EFB101147EA014700FB08F8B845FB
:108CF00007D9E71900F1FF312ED2B8452CD9023837
:108D0000274440EA0940A7EB0807A0FB02894F452A
:108D1000C64649461AD317D05DB1B3EB0E0267EBD6
:108D2000010707FA0CFCF2404CEA0202F740C5E9E1
:108D3000002700263146BDE8F0872E4628460BE77F
:108D40000646E9E61846FDE64345E5D2B8EB020ED5
:108D500069EB04010138DFE70846D2E760468DE79A
:108D60008146B9E7664675E730464AE7ACF1020C42
:108D7000394413E702383C4424E700BF704700BF82
:108D800010B5054C13462CB10A4601460220AFF33C
:108D9000008010BD2046FCE7000000000A4491421C
:108DA00000F1FF3300D1704710B511F8014B03F803
:108DB000014F9142F9D110BD02440346934200D1C4
:108DC000704703F8011BF9E738B50D4B1D68AB6B15
:108DD00004467BB91820FCF7BDFC0A4A0A4BA8637D
:108DE000C0E90023094B83600B2383810122002308
:108DF000C0E90423AB6B00221C615A6138BD00BF7F
:108E000040E403200E33CDAB34126DE6ECDE0500FA
:108E1000024B0146186800F003B800BF40E403208D
:108E200037B5044608460D4600F00FF8421C1146BF
:108E300020460192FCF7BEFC044618B1019A29466F
:108E4000FFF7ACFF204603B030BD034613F8012BFB
:108E5000002AFBD1181A01387047000021400D008C
:108E60005D400D0085400D0089400D0000000000B0
:108E7000416972205175616C6974792053656E7314
:108E80006F722072656164792E004169722051759C
:108E9000616C6974792053656E736F72204552520C
:108EA0004F522100464E523439380053656E736F6D
:108EB0007200496E697469616C697A696E67004213
:108EC0004D453238302053656E736F722072656184
:108ED00064792E00424D453238302053656E736FF1
:108EE00072204552524F5221004E6F6E6500446110
:108EF0006E676572004869676820506F6C6C7574A6
:108F0000696F6E004C6F7720506F6C6C7574696F71
:108F10006E00467265736820416972004C504F3A8A
:108F200020256400526174696F3A2025662525006A
:108F3000436F6E63656E74726174696F6E3A20255B
:108F400066207063732F4C00564F43204C65766546
:108F50006C733A200054656D703A200043004875E8
:108F60006D69646974793A200050726573733A20B0
:108F7000002068506100447573743A2000416972A2
:108F8000205175616C6974793A2025730054656DC0
:108F9000703A2025640050726573737572653A20CB
:108FA00025640048756D69646974793A2025640008
:108FB0007B2231223A22252E3266222C2022322296
:108FC0003A22252E3166222C202233223A22252EC7
:108FD0003266222C202234223A22252E3266222C7E
:108FE000202235223A22252E3366222C20223622B8
:108FF0003A22252E3266222C202237223A22252E92
:109000003166222C20226B223A222573227D0057C2
:1090100072696768742043656E74657200656E7668
:109020002D76616C7300000000000000020000005B
:10903000010000000300000000000000000000002C
:1090400000005F00000000000000070007000000B3
:1090500000147F147F14000000242A7F2A120000CD
:1090600000231308646200000036495522500000B6
:109070000000050300000000001C22410000000069
:109080000041221C0000000000082A1C2A080000E1
:109090000008083E0808000000A060000000000072
:1090A00000080808080800000060600000000000D8
:1090B0000020100804020000003E5149453E000017
:1090C0000000427F40000000006251494946000014
:1090D0000022414949360000001814127F10000098
:1090E0000027454545390000003C4A494930000009
:1090F00000017109050300000036494949360000A6
:1091000000064949291E0000000036360000000014
:109110000000AC6C000000000008142241000000B8
:10912000001414141414000000412214080000005C
:10913000000201510906000000324979413E000059
:10914000007E0909097E0000007F49494936000078
:10915000003E414141220000007F4141221C0000AD
:10916000007F494949410000007F090909010000C9
:10917000003E414151720000007F0808087F000056
:1091800000417F4100000000002040413F010000FD
:10919000007F081422410000007F40404040000052
:1091A000007F020C027F0000007F0408107F000097
:1091B000003E4141413E0000007F090909060000D0
:1091C000003E4151215E0000007F09192946000040
:1091D00000264949493200000001017F01010000D9
:1091E000003F4040403F0000001F2040201F000083
:1091F000003F4038403F0000006314081463000043
:109200000003047804030000006151494543000055
:10921000007F41410000000000020408102000000F
:109220000041417F00000000000402010204000030
:1092300000808080808000000001020400000000A7
:109240000020545454780000007F48444438000003
:10925000003844442800000000384444487F00009F
:10926000003854545418000000087E090200000021
:109270000018A4A4A47C0000007F08040478000067
:1092800000007D00000000000080847D00000000E0
:10929000007F10284400000000417F4000000000D3
:1092A000007C041804780000007C08047C000000A6
:1092B000003844443800000000FC2424180000005A
:1092C00000182424FC00000000007C0804000000BA
:1092D000004854542400000000047F4400000000B3
:1092E000003C40407C000000001C2040201C00008E
:1092F000003C4030403C000000442810284400005E
:10930000001CA0A07C000000004464544C440000F9
:10931000000836410000000000007F00000000004F
:1093200000413608000000000002010102010000B7
:10933000000205050200000064656661756C74201A
:10934000004D5342004C5342003C53504953657406
:1093500074696E67732064656661756C743E003C69
:1093600053504953657474696E677320257325756E
:10937000202573204D4F444525753E000000000018
:1093800000000000054A0D00D9490D00DB490D0021
:109390000000000000000000F7570D0001580D000C
:1093A0000B580D0015580D001F580D002B580D00BF
:1093B00037580D0043580D004B580D0055580D00FF
:1093C0005F580D000000000000000000A3590D00D0
:1093D00099590D008F590D0045590D0083590D0005
:1093E00077590D006B590D0063590D0059590D0047
:1093F0004F590D005F580D000000000000000000F4
:10940000C1590D000B5A0D00E3590D00C3590D0051
:10941000EB590D00F3590D00FB590D00035A0D00D7
:109420000000000000000000E55A0D00515B0D0037
:10943000295B0D00E1640D00F95A0D00155B0D006C
:10944000075B0D00235B0D00E75A0D00EB5A0D0082
:1094500000000000000000001F5C0D00875C0D0094
:109460005D5C0D00E1640D004F5C0D00215C0D00A2
:10947000315C0D00815C0D00415C0D001B5C0D003A
:109480000000000000000000395D0D00295D0D00A6
:109490002B5D0D0000000000000000000B5E0D00C1
:1094A000115E0D004F5E0D001F5E0D000D5E0D0084
:1094B00025592D256D2D25645425483A254D3A25ED
:1094C00053257A0061736374696D65006170700083
:1094D00000081018202830380000000000000000AC
:1094E0006B690D0061690D0057690D004D690D0034
:1094F00041690D0035690D0029690D0021690D00D4
:1095000017690D000D690D005F580D000000000087
:10951000706F770000000000000000000000304382
:1095200000000000000030C311470D0031590D004C
:10953000AD590D0099640D00BD640D00D1640D009E
:1095400019660D0075670D0075690D0000000000BB
:0895500068F5FF7F0100000037
:04955800000000000F
:10955C000F900D001D900D00C4940D000100000033
:10956C0044E40320000000000000000000000000A4
:10957C0000000000000000000000000000000000DF
:10958C0000000000000000000000000000000000CF
:10959C0000000000000000000000000000000000BF
:1095AC0000000000000000000000000000000000AF
:1095BC00000000000000000000000000000000009F
:0495CC00000000009B
:1095D000FFFFFFFF00000102030405060708090A58
:1095E0000B0C0D0E0F101112131415161718191A53
:0895F0001B1C1D1E1F2028009A
:0495F800785634125B
:04000003D0004020C9
:00000001FF
